{
  "_format": "hh-sol-artifact-1",
  "contractName": "TimeBasedURLShortener",
  "sourceName": "contracts/TimeBasedURLShortener.sol",
  "abi": [
    {
      "inputs": [
        {
          "internalType": "uint256",
          "name": "_storageFee",
          "type": "uint256"
        }
      ],
      "stateMutability": "nonpayable",
      "type": "constructor"
    },
    {
      "anonymous": false,
      "inputs": [
        {
          "indexed": true,
          "internalType": "bytes32",
          "name": "shortHash",
          "type": "bytes32"
        },
        {
          "indexed": false,
          "internalType": "string",
          "name": "url",
          "type": "string"
        },
        {
          "indexed": false,
          "internalType": "address",
          "name": "owner",
          "type": "address"
        },
        {
          "indexed": false,
          "internalType": "uint256",
          "name": "expirationTime",
          "type": "uint256"
        }
      ],
      "name": "URLShortened",
      "type": "event"
    },
    {
      "inputs": [
        {
          "internalType": "bytes32",
          "name": "_shortHash",
          "type": "bytes32"
        }
      ],
      "name": "getURL",
      "outputs": [
        {
          "internalType": "string",
          "name": "",
          "type": "string"
        },
        {
          "internalType": "uint256",
          "name": "",
          "type": "uint256"
        }
      ],
      "stateMutability": "view",
      "type": "function"
    },
    {
      "inputs": [],
      "name": "kill",
      "outputs": [],
      "stateMutability": "nonpayable",
      "type": "function"
    },
    {
      "inputs": [],
      "name": "owner",
      "outputs": [
        {
          "internalType": "address payable",
          "name": "",
          "type": "address"
        }
      ],
      "stateMutability": "view",
      "type": "function"
    },
    {
      "inputs": [
        {
          "internalType": "uint256",
          "name": "_storageFee",
          "type": "uint256"
        }
      ],
      "name": "setStorageFee",
      "outputs": [],
      "stateMutability": "nonpayable",
      "type": "function"
    },
    {
      "inputs": [
        {
          "internalType": "string",
          "name": "_url",
          "type": "string"
        },
        {
          "internalType": "uint256",
          "name": "_expirationTime",
          "type": "uint256"
        }
      ],
      "name": "shortenURL",
      "outputs": [],
      "stateMutability": "payable",
      "type": "function"
    },
    {
      "inputs": [],
      "name": "storageFee",
      "outputs": [
        {
          "internalType": "uint256",
          "name": "",
          "type": "uint256"
        }
      ],
      "stateMutability": "view",
      "type": "function"
    },
    {
      "inputs": [],
      "name": "withdrawFees",
      "outputs": [],
      "stateMutability": "nonpayable",
      "type": "function"
    }
  ],
  "bytecode": "0x608060405234801561001057600080fd5b50604051611028380380611028833981810160405281019061003291906100bb565b33600260006101000a81548173ffffffffffffffffffffffffffffffffffffffff021916908373ffffffffffffffffffffffffffffffffffffffff16021790555080600181905550506100e8565b600080fd5b6000819050919050565b61009881610085565b81146100a357600080fd5b50565b6000815190506100b58161008f565b92915050565b6000602082840312156100d1576100d0610080565b5b60006100df848285016100a6565b91505092915050565b610f31806100f76000396000f3fe6080604052600436106100705760003560e01c8063773f0b181161004e578063773f0b18146100bf5780638da5cb5b146100ea578063dfa7ff3414610115578063f99982211461013e57610070565b806325abc0741461007557806341c0e1b514610091578063476343ee146100a8575b600080fd5b61008f600480360381019061008a91906107e9565b61017c565b005b34801561009d57600080fd5b506100a66102e5565b005b3480156100b457600080fd5b506100bd6103b0565b005b3480156100cb57600080fd5b506100d46104ab565b6040516100e19190610854565b60405180910390f35b3480156100f657600080fd5b506100ff6104b1565b60405161010c91906108b0565b60405180910390f35b34801561012157600080fd5b5061013c600480360381019061013791906108cb565b6104d7565b005b34801561014a57600080fd5b506101656004803603810190610160919061092e565b610571565b6040516101739291906109da565b60405180910390f35b600061018783610629565b9050600080600083815260200190815260200160002060020154146101e1576040517f08c379a00000000000000000000000000000000000000000000000000000000081526004016101d890610a56565b60405180910390fd5b60405180606001604052803373ffffffffffffffffffffffffffffffffffffffff168152602001848152602001834261021a9190610aa5565b81525060008083815260200190815260200160002060008201518160000160006101000a81548173ffffffffffffffffffffffffffffffffffffffff021916908373ffffffffffffffffffffffffffffffffffffffff160217905550602082015181600101908161028b9190610ce5565b5060408201518160020155905050807fe11da1e286e224f6a144da41855dc7e3c55bc056c02435e132326dd92290b8ff843385426102c99190610aa5565b6040516102d893929190610dd8565b60405180910390a2505050565b600260009054906101000a900473ffffffffffffffffffffffffffffffffffffffff1673ffffffffffffffffffffffffffffffffffffffff163373ffffffffffffffffffffffffffffffffffffffff1614610375576040517f08c379a000000000000000000000000000000000000000000000000000000000815260040161036c90610e88565b60405180910390fd5b600260009054906101000a900473ffffffffffffffffffffffffffffffffffffffff1673ffffffffffffffffffffffffffffffffffffffff16ff5b600260009054906101000a900473ffffffffffffffffffffffffffffffffffffffff1673ffffffffffffffffffffffffffffffffffffffff163373ffffffffffffffffffffffffffffffffffffffff1614610440576040517f08c379a000000000000000000000000000000000000000000000000000000000815260040161043790610e88565b60405180910390fd5b600260009054906101000a900473ffffffffffffffffffffffffffffffffffffffff1673ffffffffffffffffffffffffffffffffffffffff166108fc479081150290604051600060405180830381858888f193505050501580156104a8573d6000803e3d6000fd5b50565b60015481565b600260009054906101000a900473ffffffffffffffffffffffffffffffffffffffff1681565b600260009054906101000a900473ffffffffffffffffffffffffffffffffffffffff1673ffffffffffffffffffffffffffffffffffffffff163373ffffffffffffffffffffffffffffffffffffffff1614610567576040517f08c379a000000000000000000000000000000000000000000000000000000000815260040161055e90610e88565b60405180910390fd5b8060018190555050565b6060600080600080858152602001908152602001600020905080600101816002015481805461059f90610b08565b80601f01602080910402602001604051908101604052809291908181526020018280546105cb90610b08565b80156106185780601f106105ed57610100808354040283529160200191610618565b820191906000526020600020905b8154815290600101906020018083116105fb57829003601f168201915b505050505091509250925050915091565b60008160405160200161063c9190610ee4565b604051602081830303815290604052805190602001209050919050565b6000604051905090565b600080fd5b600080fd5b600080fd5b600080fd5b6000601f19601f8301169050919050565b7f4e487b7100000000000000000000000000000000000000000000000000000000600052604160045260246000fd5b6106c082610677565b810181811067ffffffffffffffff821117156106df576106de610688565b5b80604052505050565b60006106f2610659565b90506106fe82826106b7565b919050565b600067ffffffffffffffff82111561071e5761071d610688565b5b61072782610677565b9050602081019050919050565b82818337600083830152505050565b600061075661075184610703565b6106e8565b90508281526020810184848401111561077257610771610672565b5b61077d848285610734565b509392505050565b600082601f83011261079a5761079961066d565b5b81356107aa848260208601610743565b91505092915050565b6000819050919050565b6107c6816107b3565b81146107d157600080fd5b50565b6000813590506107e3816107bd565b92915050565b60008060408385031215610800576107ff610663565b5b600083013567ffffffffffffffff81111561081e5761081d610668565b5b61082a85828601610785565b925050602061083b858286016107d4565b9150509250929050565b61084e816107b3565b82525050565b60006020820190506108696000830184610845565b92915050565b600073ffffffffffffffffffffffffffffffffffffffff82169050919050565b600061089a8261086f565b9050919050565b6108aa8161088f565b82525050565b60006020820190506108c560008301846108a1565b92915050565b6000602082840312156108e1576108e0610663565b5b60006108ef848285016107d4565b91505092915050565b6000819050919050565b61090b816108f8565b811461091657600080fd5b50565b60008135905061092881610902565b92915050565b60006020828403121561094457610943610663565b5b600061095284828501610919565b91505092915050565b600081519050919050565b600082825260208201905092915050565b60005b8381101561099557808201518184015260208101905061097a565b60008484015250505050565b60006109ac8261095b565b6109b68185610966565b93506109c6818560208601610977565b6109cf81610677565b840191505092915050565b600060408201905081810360008301526109f481856109a1565b9050610a036020830184610845565b9392505050565b7f53686f72742055524c20616c7265616479206578697374730000000000000000600082015250565b6000610a40601883610966565b9150610a4b82610a0a565b602082019050919050565b60006020820190508181036000830152610a6f81610a33565b9050919050565b7f4e487b7100000000000000000000000000000000000000000000000000000000600052601160045260246000fd5b6000610ab0826107b3565b9150610abb836107b3565b9250828201905080821115610ad357610ad2610a76565b5b92915050565b7f4e487b7100000000000000000000000000000000000000000000000000000000600052602260045260246000fd5b60006002820490506001821680610b2057607f821691505b602082108103610b3357610b32610ad9565b5b50919050565b60008190508160005260206000209050919050565b60006020601f8301049050919050565b600082821b905092915050565b600060088302610b9b7fffffffffffffffffffffffffffffffffffffffffffffffffffffffffffffffff82610b5e565b610ba58683610b5e565b95508019841693508086168417925050509392505050565b6000819050919050565b6000610be2610bdd610bd8846107b3565b610bbd565b6107b3565b9050919050565b6000819050919050565b610bfc83610bc7565b610c10610c0882610be9565b848454610b6b565b825550505050565b600090565b610c25610c18565b610c30818484610bf3565b505050565b5b81811015610c5457610c49600082610c1d565b600181019050610c36565b5050565b601f821115610c9957610c6a81610b39565b610c7384610b4e565b81016020851015610c82578190505b610c96610c8e85610b4e565b830182610c35565b50505b505050565b600082821c905092915050565b6000610cbc60001984600802610c9e565b1980831691505092915050565b6000610cd58383610cab565b9150826002028217905092915050565b610cee8261095b565b67ffffffffffffffff811115610d0757610d06610688565b5b610d118254610b08565b610d1c828285610c58565b600060209050601f831160018114610d4f5760008415610d3d578287015190505b610d478582610cc9565b865550610daf565b601f198416610d5d86610b39565b60005b82811015610d8557848901518255600182019150602085019450602081019050610d60565b86831015610da25784890151610d9e601f891682610cab565b8355505b6001600288020188555050505b505050505050565b6000610dc28261086f565b9050919050565b610dd281610db7565b82525050565b60006060820190508181036000830152610df281866109a1565b9050610e016020830185610dc9565b610e0e6040830184610845565b949350505050565b7f4f6e6c7920746865206f776e65722063616e2063616c6c20746869732066756e60008201527f6374696f6e000000000000000000000000000000000000000000000000000000602082015250565b6000610e72602583610966565b9150610e7d82610e16565b604082019050919050565b60006020820190508181036000830152610ea181610e65565b9050919050565b600081905092915050565b6000610ebe8261095b565b610ec88185610ea8565b9350610ed8818560208601610977565b80840191505092915050565b6000610ef08284610eb3565b91508190509291505056fea2646970667358221220830d67c29987d9fbabd00defb86f608a07f165de12a6195b44914a4e5f884bf764736f6c63430008130033",
  "linkReferences": {},
  "deployedLinkReferences": {}
}